{
  "contractName": "BlockgemsNFTcollection",
  "abi": [
    {
      "inputs": [
        {
          "internalType": "string",
          "name": "_name",
          "type": "string"
        },
        {
          "internalType": "string",
          "name": "_symbol",
          "type": "string"
        },
        {
          "internalType": "string",
          "name": "_initBaseURI",
          "type": "string"
        }
      ],
      "stateMutability": "nonpayable",
      "type": "constructor"
    },
    {
      "anonymous": false,
      "inputs": [
        {
          "indexed": true,
          "internalType": "address",
          "name": "owner",
          "type": "address"
        },
        {
          "indexed": true,
          "internalType": "address",
          "name": "approved",
          "type": "address"
        },
        {
          "indexed": true,
          "internalType": "uint256",
          "name": "tokenId",
          "type": "uint256"
        }
      ],
      "name": "Approval",
      "type": "event"
    },
    {
      "anonymous": false,
      "inputs": [
        {
          "indexed": true,
          "internalType": "address",
          "name": "owner",
          "type": "address"
        },
        {
          "indexed": true,
          "internalType": "address",
          "name": "operator",
          "type": "address"
        },
        {
          "indexed": false,
          "internalType": "bool",
          "name": "approved",
          "type": "bool"
        }
      ],
      "name": "ApprovalForAll",
      "type": "event"
    },
    {
      "anonymous": false,
      "inputs": [
        {
          "indexed": true,
          "internalType": "address",
          "name": "previousOwner",
          "type": "address"
        },
        {
          "indexed": true,
          "internalType": "address",
          "name": "newOwner",
          "type": "address"
        }
      ],
      "name": "OwnershipTransferred",
      "type": "event"
    },
    {
      "anonymous": false,
      "inputs": [
        {
          "indexed": true,
          "internalType": "address",
          "name": "from",
          "type": "address"
        },
        {
          "indexed": true,
          "internalType": "address",
          "name": "to",
          "type": "address"
        },
        {
          "indexed": true,
          "internalType": "uint256",
          "name": "tokenId",
          "type": "uint256"
        }
      ],
      "name": "Transfer",
      "type": "event"
    },
    {
      "inputs": [
        {
          "internalType": "address",
          "name": "to",
          "type": "address"
        },
        {
          "internalType": "uint256",
          "name": "tokenId",
          "type": "uint256"
        }
      ],
      "name": "approve",
      "outputs": [],
      "stateMutability": "nonpayable",
      "type": "function"
    },
    {
      "inputs": [
        {
          "internalType": "address",
          "name": "owner",
          "type": "address"
        }
      ],
      "name": "balanceOf",
      "outputs": [
        {
          "internalType": "uint256",
          "name": "",
          "type": "uint256"
        }
      ],
      "stateMutability": "view",
      "type": "function",
      "constant": true
    },
    {
      "inputs": [],
      "name": "baseExtension",
      "outputs": [
        {
          "internalType": "string",
          "name": "",
          "type": "string"
        }
      ],
      "stateMutability": "view",
      "type": "function",
      "constant": true
    },
    {
      "inputs": [],
      "name": "baseURI",
      "outputs": [
        {
          "internalType": "string",
          "name": "",
          "type": "string"
        }
      ],
      "stateMutability": "view",
      "type": "function",
      "constant": true
    },
    {
      "inputs": [],
      "name": "cost",
      "outputs": [
        {
          "internalType": "uint256",
          "name": "",
          "type": "uint256"
        }
      ],
      "stateMutability": "view",
      "type": "function",
      "constant": true
    },
    {
      "inputs": [
        {
          "internalType": "uint256",
          "name": "tokenId",
          "type": "uint256"
        }
      ],
      "name": "getApproved",
      "outputs": [
        {
          "internalType": "address",
          "name": "",
          "type": "address"
        }
      ],
      "stateMutability": "view",
      "type": "function",
      "constant": true
    },
    {
      "inputs": [
        {
          "internalType": "address",
          "name": "owner",
          "type": "address"
        },
        {
          "internalType": "address",
          "name": "operator",
          "type": "address"
        }
      ],
      "name": "isApprovedForAll",
      "outputs": [
        {
          "internalType": "bool",
          "name": "",
          "type": "bool"
        }
      ],
      "stateMutability": "view",
      "type": "function",
      "constant": true
    },
    {
      "inputs": [],
      "name": "maxMintAmount",
      "outputs": [
        {
          "internalType": "uint256",
          "name": "",
          "type": "uint256"
        }
      ],
      "stateMutability": "view",
      "type": "function",
      "constant": true
    },
    {
      "inputs": [],
      "name": "maxSupply",
      "outputs": [
        {
          "internalType": "uint256",
          "name": "",
          "type": "uint256"
        }
      ],
      "stateMutability": "view",
      "type": "function",
      "constant": true
    },
    {
      "inputs": [],
      "name": "name",
      "outputs": [
        {
          "internalType": "string",
          "name": "",
          "type": "string"
        }
      ],
      "stateMutability": "view",
      "type": "function",
      "constant": true
    },
    {
      "inputs": [],
      "name": "owner",
      "outputs": [
        {
          "internalType": "address",
          "name": "",
          "type": "address"
        }
      ],
      "stateMutability": "view",
      "type": "function",
      "constant": true
    },
    {
      "inputs": [
        {
          "internalType": "uint256",
          "name": "tokenId",
          "type": "uint256"
        }
      ],
      "name": "ownerOf",
      "outputs": [
        {
          "internalType": "address",
          "name": "",
          "type": "address"
        }
      ],
      "stateMutability": "view",
      "type": "function",
      "constant": true
    },
    {
      "inputs": [],
      "name": "paused",
      "outputs": [
        {
          "internalType": "bool",
          "name": "",
          "type": "bool"
        }
      ],
      "stateMutability": "view",
      "type": "function",
      "constant": true
    },
    {
      "inputs": [],
      "name": "renounceOwnership",
      "outputs": [],
      "stateMutability": "nonpayable",
      "type": "function"
    },
    {
      "inputs": [
        {
          "internalType": "address",
          "name": "from",
          "type": "address"
        },
        {
          "internalType": "address",
          "name": "to",
          "type": "address"
        },
        {
          "internalType": "uint256",
          "name": "tokenId",
          "type": "uint256"
        }
      ],
      "name": "safeTransferFrom",
      "outputs": [],
      "stateMutability": "nonpayable",
      "type": "function"
    },
    {
      "inputs": [
        {
          "internalType": "address",
          "name": "from",
          "type": "address"
        },
        {
          "internalType": "address",
          "name": "to",
          "type": "address"
        },
        {
          "internalType": "uint256",
          "name": "tokenId",
          "type": "uint256"
        },
        {
          "internalType": "bytes",
          "name": "_data",
          "type": "bytes"
        }
      ],
      "name": "safeTransferFrom",
      "outputs": [],
      "stateMutability": "nonpayable",
      "type": "function"
    },
    {
      "inputs": [
        {
          "internalType": "address",
          "name": "operator",
          "type": "address"
        },
        {
          "internalType": "bool",
          "name": "approved",
          "type": "bool"
        }
      ],
      "name": "setApprovalForAll",
      "outputs": [],
      "stateMutability": "nonpayable",
      "type": "function"
    },
    {
      "inputs": [
        {
          "internalType": "bytes4",
          "name": "interfaceId",
          "type": "bytes4"
        }
      ],
      "name": "supportsInterface",
      "outputs": [
        {
          "internalType": "bool",
          "name": "",
          "type": "bool"
        }
      ],
      "stateMutability": "view",
      "type": "function",
      "constant": true
    },
    {
      "inputs": [],
      "name": "symbol",
      "outputs": [
        {
          "internalType": "string",
          "name": "",
          "type": "string"
        }
      ],
      "stateMutability": "view",
      "type": "function",
      "constant": true
    },
    {
      "inputs": [
        {
          "internalType": "uint256",
          "name": "index",
          "type": "uint256"
        }
      ],
      "name": "tokenByIndex",
      "outputs": [
        {
          "internalType": "uint256",
          "name": "",
          "type": "uint256"
        }
      ],
      "stateMutability": "view",
      "type": "function",
      "constant": true
    },
    {
      "inputs": [
        {
          "internalType": "address",
          "name": "owner",
          "type": "address"
        },
        {
          "internalType": "uint256",
          "name": "index",
          "type": "uint256"
        }
      ],
      "name": "tokenOfOwnerByIndex",
      "outputs": [
        {
          "internalType": "uint256",
          "name": "",
          "type": "uint256"
        }
      ],
      "stateMutability": "view",
      "type": "function",
      "constant": true
    },
    {
      "inputs": [],
      "name": "totalSupply",
      "outputs": [
        {
          "internalType": "uint256",
          "name": "",
          "type": "uint256"
        }
      ],
      "stateMutability": "view",
      "type": "function",
      "constant": true
    },
    {
      "inputs": [
        {
          "internalType": "address",
          "name": "from",
          "type": "address"
        },
        {
          "internalType": "address",
          "name": "to",
          "type": "address"
        },
        {
          "internalType": "uint256",
          "name": "tokenId",
          "type": "uint256"
        }
      ],
      "name": "transferFrom",
      "outputs": [],
      "stateMutability": "nonpayable",
      "type": "function"
    },
    {
      "inputs": [
        {
          "internalType": "address",
          "name": "newOwner",
          "type": "address"
        }
      ],
      "name": "transferOwnership",
      "outputs": [],
      "stateMutability": "nonpayable",
      "type": "function"
    },
    {
      "inputs": [
        {
          "internalType": "address",
          "name": "",
          "type": "address"
        }
      ],
      "name": "whitelisted",
      "outputs": [
        {
          "internalType": "bool",
          "name": "",
          "type": "bool"
        }
      ],
      "stateMutability": "view",
      "type": "function",
      "constant": true
    },
    {
      "inputs": [
        {
          "internalType": "address",
          "name": "_to",
          "type": "address"
        },
        {
          "internalType": "uint256",
          "name": "_mintAmount",
          "type": "uint256"
        }
      ],
      "name": "mint",
      "outputs": [],
      "stateMutability": "payable",
      "type": "function",
      "payable": true
    },
    {
      "inputs": [
        {
          "internalType": "address",
          "name": "_owner",
          "type": "address"
        }
      ],
      "name": "walletOfOwner",
      "outputs": [
        {
          "internalType": "uint256[]",
          "name": "",
          "type": "uint256[]"
        }
      ],
      "stateMutability": "view",
      "type": "function",
      "constant": true
    },
    {
      "inputs": [
        {
          "internalType": "uint256",
          "name": "tokenId",
          "type": "uint256"
        }
      ],
      "name": "tokenURI",
      "outputs": [
        {
          "internalType": "string",
          "name": "",
          "type": "string"
        }
      ],
      "stateMutability": "view",
      "type": "function",
      "constant": true
    },
    {
      "inputs": [
        {
          "internalType": "uint256",
          "name": "_newCost",
          "type": "uint256"
        }
      ],
      "name": "setCost",
      "outputs": [],
      "stateMutability": "nonpayable",
      "type": "function"
    },
    {
      "inputs": [
        {
          "internalType": "uint256",
          "name": "_newmaxMintAmount",
          "type": "uint256"
        }
      ],
      "name": "setmaxMintAmount",
      "outputs": [],
      "stateMutability": "nonpayable",
      "type": "function"
    },
    {
      "inputs": [
        {
          "internalType": "string",
          "name": "_newBaseURI",
          "type": "string"
        }
      ],
      "name": "setBaseURI",
      "outputs": [],
      "stateMutability": "nonpayable",
      "type": "function"
    },
    {
      "inputs": [
        {
          "internalType": "string",
          "name": "_newBaseExtension",
          "type": "string"
        }
      ],
      "name": "setBaseExtension",
      "outputs": [],
      "stateMutability": "nonpayable",
      "type": "function"
    },
    {
      "inputs": [
        {
          "internalType": "bool",
          "name": "_state",
          "type": "bool"
        }
      ],
      "name": "pause",
      "outputs": [],
      "stateMutability": "nonpayable",
      "type": "function"
    },
    {
      "inputs": [
        {
          "internalType": "address",
          "name": "_user",
          "type": "address"
        }
      ],
      "name": "whitelistUser",
      "outputs": [],
      "stateMutability": "nonpayable",
      "type": "function"
    },
    {
      "inputs": [
        {
          "internalType": "address",
          "name": "_user",
          "type": "address"
        }
      ],
      "name": "removeWhitelistUser",
      "outputs": [],
      "stateMutability": "nonpayable",
      "type": "function"
    },
    {
      "inputs": [],
      "name": "withdraw",
      "outputs": [],
      "stateMutability": "payable",
      "type": "function",
      "payable": true
    }
  ],
  "bytecode": "0x60806040526040518060400160405280600581526020017f2e6a736f6e000000000000000000000000000000000000000000000000000000815250600c90805190602001906200005192919062000eab565b50662386f26fc10000600d556005600e556002600f556000601060006101000a81548160ff0219169083151502179055503480156200008f57600080fd5b5060405162005bcf38038062005bcf8339818101604052810190620000b5919062001010565b82828160009080519060200190620000cf92919062000eab565b508060019080519060200190620000e892919062000eab565b5050506200010b620000ff6200013860201b60201c565b6200014060201b60201c565b6200011c816200020660201b60201c565b6200012f336001620002b160201b60201c565b50505062001785565b600033905090565b6000600a60009054906101000a900473ffffffffffffffffffffffffffffffffffffffff16905081600a60006101000a81548173ffffffffffffffffffffffffffffffffffffffff021916908373ffffffffffffffffffffffffffffffffffffffff1602179055508173ffffffffffffffffffffffffffffffffffffffff168173ffffffffffffffffffffffffffffffffffffffff167f8be0079c531659141344cd1fd0a4f28419497f9722a3daafe3b4186f6b6457e060405160405180910390a35050565b620002166200013860201b60201c565b73ffffffffffffffffffffffffffffffffffffffff166200023c6200042060201b60201c565b73ffffffffffffffffffffffffffffffffffffffff161462000295576040517f08c379a00000000000000000000000000000000000000000000000000000000081526004016200028c90620012b3565b60405180910390fd5b80600b9080519060200190620002ad92919062000eab565b5050565b6000620002c36200044a60201b60201c565b9050601060009054906101000a900460ff1615620002e057600080fd5b60008211620002ee57600080fd5b600f54821115620002fe57600080fd5b600e5482826200030f919062001361565b11156200031b57600080fd5b6200032b6200042060201b60201c565b73ffffffffffffffffffffffffffffffffffffffff163373ffffffffffffffffffffffffffffffffffffffff1614620003d65760011515601160003373ffffffffffffffffffffffffffffffffffffffff1673ffffffffffffffffffffffffffffffffffffffff16815260200190815260200160002060009054906101000a900460ff16151514620003d55781600d54620003c79190620013be565b341015620003d457600080fd5b5b5b6000600190505b8281116200041a5762000404848284620003f8919062001361565b6200045760201b60201c565b8080620004119062001566565b915050620003dd565b50505050565b6000600a60009054906101000a900473ffffffffffffffffffffffffffffffffffffffff16905090565b6000600880549050905090565b620004798282604051806020016040528060008152506200047d60201b60201c565b5050565b6200048f8383620004eb60201b60201c565b620004a46000848484620006d160201b60201c565b620004e6576040517f08c379a0000000000000000000000000000000000000000000000000000000008152600401620004dd906200122b565b60405180910390fd5b505050565b600073ffffffffffffffffffffffffffffffffffffffff168273ffffffffffffffffffffffffffffffffffffffff1614156200055e576040517f08c379a0000000000000000000000000000000000000000000000000000000008152600401620005559062001291565b60405180910390fd5b6200056f816200088b60201b60201c565b15620005b2576040517f08c379a0000000000000000000000000000000000000000000000000000000008152600401620005a9906200124d565b60405180910390fd5b620005c660008383620008f760201b60201c565b6001600360008473ffffffffffffffffffffffffffffffffffffffff1673ffffffffffffffffffffffffffffffffffffffff168152602001908152602001600020600082825462000618919062001361565b92505081905550816002600083815260200190815260200160002060006101000a81548173ffffffffffffffffffffffffffffffffffffffff021916908373ffffffffffffffffffffffffffffffffffffffff160217905550808273ffffffffffffffffffffffffffffffffffffffff16600073ffffffffffffffffffffffffffffffffffffffff167fddf252ad1be2c89b69c2b068fc378daa952ba7f163c4a11628f55a4df523b3ef60405160405180910390a45050565b6000620006ff8473ffffffffffffffffffffffffffffffffffffffff1662000a3e60201b62001c8b1760201c565b156200087e578373ffffffffffffffffffffffffffffffffffffffff1663150b7a02620007316200013860201b60201c565b8786866040518563ffffffff1660e01b8152600401620007559493929190620011d7565b602060405180830381600087803b1580156200077057600080fd5b505af1925050508015620007a457506040513d601f19601f82011682018060405250810190620007a1919062000fe4565b60015b6200082d573d8060008114620007d7576040519150601f19603f3d011682016040523d82523d6000602084013e620007dc565b606091505b5060008151141562000825576040517f08c379a00000000000000000000000000000000000000000000000000000000081526004016200081c906200122b565b60405180910390fd5b805181602001fd5b63150b7a0260e01b7bffffffffffffffffffffffffffffffffffffffffffffffffffffffff1916817bffffffffffffffffffffffffffffffffffffffffffffffffffffffff19161491505062000883565b600190505b949350505050565b60008073ffffffffffffffffffffffffffffffffffffffff166002600084815260200190815260200160002060009054906101000a900473ffffffffffffffffffffffffffffffffffffffff1673ffffffffffffffffffffffffffffffffffffffff1614159050919050565b6200090f83838362000a5160201b62001c9e1760201c565b600073ffffffffffffffffffffffffffffffffffffffff168373ffffffffffffffffffffffffffffffffffffffff1614156200095c57620009568162000a5660201b60201c565b620009a4565b8173ffffffffffffffffffffffffffffffffffffffff168373ffffffffffffffffffffffffffffffffffffffff1614620009a357620009a2838262000a9f60201b60201c565b5b5b600073ffffffffffffffffffffffffffffffffffffffff168273ffffffffffffffffffffffffffffffffffffffff161415620009f157620009eb8162000c1c60201b60201c565b62000a39565b8273ffffffffffffffffffffffffffffffffffffffff168273ffffffffffffffffffffffffffffffffffffffff161462000a385762000a37828262000d6460201b60201c565b5b5b505050565b600080823b905060008111915050919050565b505050565b6008805490506009600083815260200190815260200160002081905550600881908060018154018082558091505060019003906000526020600020016000909190919091505550565b6000600162000ab98462000df060201b620014a61760201c565b62000ac591906200141f565b905060006007600084815260200190815260200160002054905081811462000bab576000600660008673ffffffffffffffffffffffffffffffffffffffff1673ffffffffffffffffffffffffffffffffffffffff168152602001908152602001600020600084815260200190815260200160002054905080600660008773ffffffffffffffffffffffffffffffffffffffff1673ffffffffffffffffffffffffffffffffffffffff168152602001908152602001600020600084815260200190815260200160002081905550816007600083815260200190815260200160002081905550505b6007600084815260200190815260200160002060009055600660008573ffffffffffffffffffffffffffffffffffffffff1673ffffffffffffffffffffffffffffffffffffffff16815260200190815260200160002060008381526020019081526020016000206000905550505050565b6000600160088054905062000c3291906200141f565b905060006009600084815260200190815260200160002054905060006008838154811062000c89577f4e487b7100000000000000000000000000000000000000000000000000000000600052603260045260246000fd5b90600052602060002001549050806008838154811062000cd2577f4e487b7100000000000000000000000000000000000000000000000000000000600052603260045260246000fd5b90600052602060002001819055508160096000838152602001908152602001600020819055506009600085815260200190815260200160002060009055600880548062000d48577f4e487b7100000000000000000000000000000000000000000000000000000000600052603160045260246000fd5b6001900381819060005260206000200160009055905550505050565b600062000d7c8362000df060201b620014a61760201c565b905081600660008573ffffffffffffffffffffffffffffffffffffffff1673ffffffffffffffffffffffffffffffffffffffff168152602001908152602001600020600083815260200190815260200160002081905550806007600084815260200190815260200160002081905550505050565b60008073ffffffffffffffffffffffffffffffffffffffff168273ffffffffffffffffffffffffffffffffffffffff16141562000e64576040517f08c379a000000000000000000000000000000000000000000000000000000000815260040162000e5b906200126f565b60405180910390fd5b600360008373ffffffffffffffffffffffffffffffffffffffff1673ffffffffffffffffffffffffffffffffffffffff168152602001908152602001600020549050919050565b82805462000eb990620014fa565b90600052602060002090601f01602090048101928262000edd576000855562000f29565b82601f1062000ef857805160ff191683800117855562000f29565b8280016001018555821562000f29579182015b8281111562000f2857825182559160200191906001019062000f0b565b5b50905062000f38919062000f3c565b5090565b5b8082111562000f5757600081600090555060010162000f3d565b5090565b600062000f7262000f6c84620012fe565b620012d5565b90508281526020810184848401111562000f8b57600080fd5b62000f98848285620014c4565b509392505050565b60008151905062000fb1816200176b565b92915050565b600082601f83011262000fc957600080fd5b815162000fdb84826020860162000f5b565b91505092915050565b60006020828403121562000ff757600080fd5b6000620010078482850162000fa0565b91505092915050565b6000806000606084860312156200102657600080fd5b600084015167ffffffffffffffff8111156200104157600080fd5b6200104f8682870162000fb7565b935050602084015167ffffffffffffffff8111156200106d57600080fd5b6200107b8682870162000fb7565b925050604084015167ffffffffffffffff8111156200109957600080fd5b620010a78682870162000fb7565b9150509250925092565b620010bc816200145a565b82525050565b6000620010cf8262001334565b620010db81856200133f565b9350620010ed818560208601620014c4565b620010f88162001641565b840191505092915050565b60006200111260328362001350565b91506200111f8262001652565b604082019050919050565b600062001139601c8362001350565b91506200114682620016a1565b602082019050919050565b600062001160602a8362001350565b91506200116d82620016ca565b604082019050919050565b60006200118760208362001350565b9150620011948262001719565b602082019050919050565b6000620011ae60208362001350565b9150620011bb8262001742565b602082019050919050565b620011d181620014ba565b82525050565b6000608082019050620011ee6000830187620010b1565b620011fd6020830186620010b1565b6200120c6040830185620011c6565b8181036060830152620012208184620010c2565b905095945050505050565b60006020820190508181036000830152620012468162001103565b9050919050565b6000602082019050818103600083015262001268816200112a565b9050919050565b600060208201905081810360008301526200128a8162001151565b9050919050565b60006020820190508181036000830152620012ac8162001178565b9050919050565b60006020820190508181036000830152620012ce816200119f565b9050919050565b6000620012e1620012f4565b9050620012ef828262001530565b919050565b6000604051905090565b600067ffffffffffffffff8211156200131c576200131b62001612565b5b620013278262001641565b9050602081019050919050565b600081519050919050565b600082825260208201905092915050565b600082825260208201905092915050565b60006200136e82620014ba565b91506200137b83620014ba565b9250827fffffffffffffffffffffffffffffffffffffffffffffffffffffffffffffffff03821115620013b357620013b2620015b4565b5b828201905092915050565b6000620013cb82620014ba565b9150620013d883620014ba565b9250817fffffffffffffffffffffffffffffffffffffffffffffffffffffffffffffffff0483118215151615620014145762001413620015b4565b5b828202905092915050565b60006200142c82620014ba565b91506200143983620014ba565b9250828210156200144f576200144e620015b4565b5b828203905092915050565b600062001467826200149a565b9050919050565b60007fffffffff0000000000000000000000000000000000000000000000000000000082169050919050565b600073ffffffffffffffffffffffffffffffffffffffff82169050919050565b6000819050919050565b60005b83811015620014e4578082015181840152602081019050620014c7565b83811115620014f4576000848401525b50505050565b600060028204905060018216806200151357607f821691505b602082108114156200152a5762001529620015e3565b5b50919050565b6200153b8262001641565b810181811067ffffffffffffffff821117156200155d576200155c62001612565b5b80604052505050565b60006200157382620014ba565b91507fffffffffffffffffffffffffffffffffffffffffffffffffffffffffffffffff821415620015a957620015a8620015b4565b5b600182019050919050565b7f4e487b7100000000000000000000000000000000000000000000000000000000600052601160045260246000fd5b7f4e487b7100000000000000000000000000000000000000000000000000000000600052602260045260246000fd5b7f4e487b7100000000000000000000000000000000000000000000000000000000600052604160045260246000fd5b6000601f19601f8301169050919050565b7f4552433732313a207472616e7366657220746f206e6f6e20455243373231526560008201527f63656976657220696d706c656d656e7465720000000000000000000000000000602082015250565b7f4552433732313a20746f6b656e20616c7265616479206d696e74656400000000600082015250565b7f4552433732313a2062616c616e636520717565727920666f7220746865207a6560008201527f726f206164647265737300000000000000000000000000000000000000000000602082015250565b7f4552433732313a206d696e7420746f20746865207a65726f2061646472657373600082015250565b7f4f776e61626c653a2063616c6c6572206973206e6f7420746865206f776e6572600082015250565b62001776816200146e565b81146200178257600080fd5b50565b61443a80620017956000396000f3fe60806040526004361061020f5760003560e01c806355f804b311610118578063a22cb465116100a0578063d5abeb011161006f578063d5abeb011461077f578063d936547e146107aa578063da3ef23f146107e7578063e985e9c514610810578063f2fde38b1461084d5761020f565b8063a22cb465146106c5578063b88d4fde146106ee578063c668286214610717578063c87b56dd146107425761020f565b806370a08231116100e757806370a08231146105f2578063715018a61461062f5780637f00c7a6146106465780638da5cb5b1461066f57806395d89b411461069a5761020f565b806355f804b3146105365780635c975abb1461055f5780636352211e1461058a5780636c0360eb146105c75761020f565b80632f745c591161019b57806342842e0e1161016a57806342842e0e14610441578063438b63001461046a57806344a0d68a146104a75780634a4c560d146104d05780634f6ccce7146104f95761020f565b80632f745c59146103b557806330cc7ae0146103f25780633ccfd60b1461041b57806340c10f19146104255761020f565b8063095ea7b3116101e2578063095ea7b3146102e257806313faede61461030b57806318160ddd14610336578063239c70ae1461036157806323b872dd1461038c5761020f565b806301ffc9a71461021457806302329a291461025157806306fdde031461027a578063081812fc146102a5575b600080fd5b34801561022057600080fd5b5061023b600480360381019061023691906131cd565b610876565b604051610248919061378d565b60405180910390f35b34801561025d57600080fd5b50610278600480360381019061027391906131a4565b6108f0565b005b34801561028657600080fd5b5061028f610989565b60405161029c91906137a8565b60405180910390f35b3480156102b157600080fd5b506102cc60048036038101906102c79190613260565b610a1b565b6040516102d99190613704565b60405180910390f35b3480156102ee57600080fd5b5061030960048036038101906103049190613168565b610aa0565b005b34801561031757600080fd5b50610320610bb8565b60405161032d9190613a0a565b60405180910390f35b34801561034257600080fd5b5061034b610bbe565b6040516103589190613a0a565b60405180910390f35b34801561036d57600080fd5b50610376610bcb565b6040516103839190613a0a565b60405180910390f35b34801561039857600080fd5b506103b360048036038101906103ae9190613062565b610bd1565b005b3480156103c157600080fd5b506103dc60048036038101906103d79190613168565b610c31565b6040516103e99190613a0a565b60405180910390f35b3480156103fe57600080fd5b5061041960048036038101906104149190612ffd565b610cd6565b005b610423610dad565b005b61043f600480360381019061043a9190613168565b610e69565b005b34801561044d57600080fd5b5061046860048036038101906104639190613062565b610faf565b005b34801561047657600080fd5b50610491600480360381019061048c9190612ffd565b610fcf565b60405161049e919061376b565b60405180910390f35b3480156104b357600080fd5b506104ce60048036038101906104c99190613260565b6110c9565b005b3480156104dc57600080fd5b506104f760048036038101906104f29190612ffd565b61114f565b005b34801561050557600080fd5b50610520600480360381019061051b9190613260565b611226565b60405161052d9190613a0a565b60405180910390f35b34801561054257600080fd5b5061055d6004803603810190610558919061321f565b6112bd565b005b34801561056b57600080fd5b50610574611353565b604051610581919061378d565b60405180910390f35b34801561059657600080fd5b506105b160048036038101906105ac9190613260565b611366565b6040516105be9190613704565b60405180910390f35b3480156105d357600080fd5b506105dc611418565b6040516105e991906137a8565b60405180910390f35b3480156105fe57600080fd5b5061061960048036038101906106149190612ffd565b6114a6565b6040516106269190613a0a565b60405180910390f35b34801561063b57600080fd5b5061064461155e565b005b34801561065257600080fd5b5061066d60048036038101906106689190613260565b6115e6565b005b34801561067b57600080fd5b5061068461166c565b6040516106919190613704565b60405180910390f35b3480156106a657600080fd5b506106af611696565b6040516106bc91906137a8565b60405180910390f35b3480156106d157600080fd5b506106ec60048036038101906106e7919061312c565b611728565b005b3480156106fa57600080fd5b50610715600480360381019061071091906130b1565b6118a9565b005b34801561072357600080fd5b5061072c61190b565b60405161073991906137a8565b60405180910390f35b34801561074e57600080fd5b5061076960048036038101906107649190613260565b611999565b60405161077691906137a8565b60405180910390f35b34801561078b57600080fd5b50610794611a43565b6040516107a19190613a0a565b60405180910390f35b3480156107b657600080fd5b506107d160048036038101906107cc9190612ffd565b611a49565b6040516107de919061378d565b60405180910390f35b3480156107f357600080fd5b5061080e6004803603810190610809919061321f565b611a69565b005b34801561081c57600080fd5b5061083760048036038101906108329190613026565b611aff565b604051610844919061378d565b60405180910390f35b34801561085957600080fd5b50610874600480360381019061086f9190612ffd565b611b93565b005b60007f780e9d63000000000000000000000000000000000000000000000000000000007bffffffffffffffffffffffffffffffffffffffffffffffffffffffff1916827bffffffffffffffffffffffffffffffffffffffffffffffffffffffff191614806108e957506108e882611ca3565b5b9050919050565b6108f8611d85565b73ffffffffffffffffffffffffffffffffffffffff1661091661166c565b73ffffffffffffffffffffffffffffffffffffffff161461096c576040517f08c379a00000000000000000000000000000000000000000000000000000000081526004016109639061394a565b60405180910390fd5b80601060006101000a81548160ff02191690831515021790555050565b60606000805461099890613d08565b80601f01602080910402602001604051908101604052809291908181526020018280546109c490613d08565b8015610a115780601f106109e657610100808354040283529160200191610a11565b820191906000526020600020905b8154815290600101906020018083116109f457829003601f168201915b5050505050905090565b6000610a2682611d8d565b610a65576040517f08c379a0000000000000000000000000000000000000000000000000000000008152600401610a5c9061392a565b60405180910390fd5b6004600083815260200190815260200160002060009054906101000a900473ffffffffffffffffffffffffffffffffffffffff169050919050565b6000610aab82611366565b90508073ffffffffffffffffffffffffffffffffffffffff168373ffffffffffffffffffffffffffffffffffffffff161415610b1c576040517f08c379a0000000000000000000000000000000000000000000000000000000008152600401610b13906139aa565b60405180910390fd5b8073ffffffffffffffffffffffffffffffffffffffff16610b3b611d85565b73ffffffffffffffffffffffffffffffffffffffff161480610b6a5750610b6981610b64611d85565b611aff565b5b610ba9576040517f08c379a0000000000000000000000000000000000000000000000000000000008152600401610ba0906138aa565b60405180910390fd5b610bb38383611df9565b505050565b600d5481565b6000600880549050905090565b600f5481565b610be2610bdc611d85565b82611eb2565b610c21576040517f08c379a0000000000000000000000000000000000000000000000000000000008152600401610c18906139ca565b60405180910390fd5b610c2c838383611f90565b505050565b6000610c3c836114a6565b8210610c7d576040517f08c379a0000000000000000000000000000000000000000000000000000000008152600401610c74906137ca565b60405180910390fd5b600660008473ffffffffffffffffffffffffffffffffffffffff1673ffffffffffffffffffffffffffffffffffffffff168152602001908152602001600020600083815260200190815260200160002054905092915050565b610cde611d85565b73ffffffffffffffffffffffffffffffffffffffff16610cfc61166c565b73ffffffffffffffffffffffffffffffffffffffff1614610d52576040517f08c379a0000000000000000000000000000000000000000000000000000000008152600401610d499061394a565b60405180910390fd5b6000601160008373ffffffffffffffffffffffffffffffffffffffff1673ffffffffffffffffffffffffffffffffffffffff16815260200190815260200160002060006101000a81548160ff02191690831515021790555050565b610db5611d85565b73ffffffffffffffffffffffffffffffffffffffff16610dd361166c565b73ffffffffffffffffffffffffffffffffffffffff1614610e29576040517f08c379a0000000000000000000000000000000000000000000000000000000008152600401610e209061394a565b60405180910390fd5b3373ffffffffffffffffffffffffffffffffffffffff166108fc479081150290604051600060405180830381858888f19350505050610e6757600080fd5b565b6000610e73610bbe565b9050601060009054906101000a900460ff1615610e8f57600080fd5b60008211610e9c57600080fd5b600f54821115610eab57600080fd5b600e548282610eba9190613b3d565b1115610ec557600080fd5b610ecd61166c565b73ffffffffffffffffffffffffffffffffffffffff163373ffffffffffffffffffffffffffffffffffffffff1614610f735760011515601160003373ffffffffffffffffffffffffffffffffffffffff1673ffffffffffffffffffffffffffffffffffffffff16815260200190815260200160002060009054906101000a900460ff16151514610f725781600d54610f659190613bc4565b341015610f7157600080fd5b5b5b6000600190505b828111610fa957610f96848284610f919190613b3d565b6121ec565b8080610fa190613d6b565b915050610f7a565b50505050565b610fca838383604051806020016040528060008152506118a9565b505050565b60606000610fdc836114a6565b905060008167ffffffffffffffff811115611020577f4e487b7100000000000000000000000000000000000000000000000000000000600052604160045260246000fd5b60405190808252806020026020018201604052801561104e5781602001602082028036833780820191505090505b50905060005b828110156110be576110668582610c31565b82828151811061109f577f4e487b7100000000000000000000000000000000000000000000000000000000600052603260045260246000fd5b60200260200101818152505080806110b690613d6b565b915050611054565b508092505050919050565b6110d1611d85565b73ffffffffffffffffffffffffffffffffffffffff166110ef61166c565b73ffffffffffffffffffffffffffffffffffffffff1614611145576040517f08c379a000000000000000000000000000000000000000000000000000000000815260040161113c9061394a565b60405180910390fd5b80600d8190555050565b611157611d85565b73ffffffffffffffffffffffffffffffffffffffff1661117561166c565b73ffffffffffffffffffffffffffffffffffffffff16146111cb576040517f08c379a00000000000000000000000000000000000000000000000000000000081526004016111c29061394a565b60405180910390fd5b6001601160008373ffffffffffffffffffffffffffffffffffffffff1673ffffffffffffffffffffffffffffffffffffffff16815260200190815260200160002060006101000a81548160ff02191690831515021790555050565b6000611230610bbe565b8210611271576040517f08c379a0000000000000000000000000000000000000000000000000000000008152600401611268906139ea565b60405180910390fd5b600882815481106112ab577f4e487b7100000000000000000000000000000000000000000000000000000000600052603260045260246000fd5b90600052602060002001549050919050565b6112c5611d85565b73ffffffffffffffffffffffffffffffffffffffff166112e361166c565b73ffffffffffffffffffffffffffffffffffffffff1614611339576040517f08c379a00000000000000000000000000000000000000000000000000000000081526004016113309061394a565b60405180910390fd5b80600b908051906020019061134f929190612e21565b5050565b601060009054906101000a900460ff1681565b6000806002600084815260200190815260200160002060009054906101000a900473ffffffffffffffffffffffffffffffffffffffff169050600073ffffffffffffffffffffffffffffffffffffffff168173ffffffffffffffffffffffffffffffffffffffff16141561140f576040517f08c379a0000000000000000000000000000000000000000000000000000000008152600401611406906138ea565b60405180910390fd5b80915050919050565b600b805461142590613d08565b80601f016020809104026020016040519081016040528092919081815260200182805461145190613d08565b801561149e5780601f106114735761010080835404028352916020019161149e565b820191906000526020600020905b81548152906001019060200180831161148157829003601f168201915b505050505081565b60008073ffffffffffffffffffffffffffffffffffffffff168273ffffffffffffffffffffffffffffffffffffffff161415611517576040517f08c379a000000000000000000000000000000000000000000000000000000000815260040161150e906138ca565b60405180910390fd5b600360008373ffffffffffffffffffffffffffffffffffffffff1673ffffffffffffffffffffffffffffffffffffffff168152602001908152602001600020549050919050565b611566611d85565b73ffffffffffffffffffffffffffffffffffffffff1661158461166c565b73ffffffffffffffffffffffffffffffffffffffff16146115da576040517f08c379a00000000000000000000000000000000000000000000000000000000081526004016115d19061394a565b60405180910390fd5b6115e4600061220a565b565b6115ee611d85565b73ffffffffffffffffffffffffffffffffffffffff1661160c61166c565b73ffffffffffffffffffffffffffffffffffffffff1614611662576040517f08c379a00000000000000000000000000000000000000000000000000000000081526004016116599061394a565b60405180910390fd5b80600f8190555050565b6000600a60009054906101000a900473ffffffffffffffffffffffffffffffffffffffff16905090565b6060600180546116a590613d08565b80601f01602080910402602001604051908101604052809291908181526020018280546116d190613d08565b801561171e5780601f106116f35761010080835404028352916020019161171e565b820191906000526020600020905b81548152906001019060200180831161170157829003601f168201915b5050505050905090565b611730611d85565b73ffffffffffffffffffffffffffffffffffffffff168273ffffffffffffffffffffffffffffffffffffffff16141561179e576040517f08c379a00000000000000000000000000000000000000000000000000000000081526004016117959061386a565b60405180910390fd5b80600560006117ab611d85565b73ffffffffffffffffffffffffffffffffffffffff1673ffffffffffffffffffffffffffffffffffffffff16815260200190815260200160002060008473ffffffffffffffffffffffffffffffffffffffff1673ffffffffffffffffffffffffffffffffffffffff16815260200190815260200160002060006101000a81548160ff0219169083151502179055508173ffffffffffffffffffffffffffffffffffffffff16611858611d85565b73ffffffffffffffffffffffffffffffffffffffff167f17307eab39ab6107e8899845ad3d59bd9653f200f220920489ca2b5937696c318360405161189d919061378d565b60405180910390a35050565b6118ba6118b4611d85565b83611eb2565b6118f9576040517f08c379a00000000000000000000000000000000000000000000000000000000081526004016118f0906139ca565b60405180910390fd5b611905848484846122d0565b50505050565b600c805461191890613d08565b80601f016020809104026020016040519081016040528092919081815260200182805461194490613d08565b80156119915780601f1061196657610100808354040283529160200191611991565b820191906000526020600020905b81548152906001019060200180831161197457829003601f168201915b505050505081565b60606119a482611d8d565b6119e3576040517f08c379a00000000000000000000000000000000000000000000000000000000081526004016119da9061398a565b60405180910390fd5b60006119ed61232c565b90506000815111611a0d5760405180602001604052806000815250611a3b565b80611a17846123be565b600c604051602001611a2b939291906136d3565b6040516020818303038152906040525b915050919050565b600e5481565b60116020528060005260406000206000915054906101000a900460ff1681565b611a71611d85565b73ffffffffffffffffffffffffffffffffffffffff16611a8f61166c565b73ffffffffffffffffffffffffffffffffffffffff1614611ae5576040517f08c379a0000000000000000000000000000000000000000000000000000000008152600401611adc9061394a565b60405180910390fd5b80600c9080519060200190611afb929190612e21565b5050565b6000600560008473ffffffffffffffffffffffffffffffffffffffff1673ffffffffffffffffffffffffffffffffffffffff16815260200190815260200160002060008373ffffffffffffffffffffffffffffffffffffffff1673ffffffffffffffffffffffffffffffffffffffff16815260200190815260200160002060009054906101000a900460ff16905092915050565b611b9b611d85565b73ffffffffffffffffffffffffffffffffffffffff16611bb961166c565b73ffffffffffffffffffffffffffffffffffffffff1614611c0f576040517f08c379a0000000000000000000000000000000000000000000000000000000008152600401611c069061394a565b60405180910390fd5b600073ffffffffffffffffffffffffffffffffffffffff168173ffffffffffffffffffffffffffffffffffffffff161415611c7f576040517f08c379a0000000000000000000000000000000000000000000000000000000008152600401611c769061380a565b60405180910390fd5b611c888161220a565b50565b600080823b905060008111915050919050565b505050565b60007f80ac58cd000000000000000000000000000000000000000000000000000000007bffffffffffffffffffffffffffffffffffffffffffffffffffffffff1916827bffffffffffffffffffffffffffffffffffffffffffffffffffffffff19161480611d6e57507f5b5e139f000000000000000000000000000000000000000000000000000000007bffffffffffffffffffffffffffffffffffffffffffffffffffffffff1916827bffffffffffffffffffffffffffffffffffffffffffffffffffffffff1916145b80611d7e5750611d7d8261256b565b5b9050919050565b600033905090565b60008073ffffffffffffffffffffffffffffffffffffffff166002600084815260200190815260200160002060009054906101000a900473ffffffffffffffffffffffffffffffffffffffff1673ffffffffffffffffffffffffffffffffffffffff1614159050919050565b816004600083815260200190815260200160002060006101000a81548173ffffffffffffffffffffffffffffffffffffffff021916908373ffffffffffffffffffffffffffffffffffffffff160217905550808273ffffffffffffffffffffffffffffffffffffffff16611e6c83611366565b73ffffffffffffffffffffffffffffffffffffffff167f8c5be1e5ebec7d5bd14f71427d1e84f3dd0314c0f7b2291e5b200ac8c7c3b92560405160405180910390a45050565b6000611ebd82611d8d565b611efc576040517f08c379a0000000000000000000000000000000000000000000000000000000008152600401611ef39061388a565b60405180910390fd5b6000611f0783611366565b90508073ffffffffffffffffffffffffffffffffffffffff168473ffffffffffffffffffffffffffffffffffffffff161480611f7657508373ffffffffffffffffffffffffffffffffffffffff16611f5e84610a1b565b73ffffffffffffffffffffffffffffffffffffffff16145b80611f875750611f868185611aff565b5b91505092915050565b8273ffffffffffffffffffffffffffffffffffffffff16611fb082611366565b73ffffffffffffffffffffffffffffffffffffffff1614612006576040517f08c379a0000000000000000000000000000000000000000000000000000000008152600401611ffd9061396a565b60405180910390fd5b600073ffffffffffffffffffffffffffffffffffffffff168273ffffffffffffffffffffffffffffffffffffffff161415612076576040517f08c379a000000000000000000000000000000000000000000000000000000000815260040161206d9061384a565b60405180910390fd5b6120818383836125d5565b61208c600082611df9565b6001600360008573ffffffffffffffffffffffffffffffffffffffff1673ffffffffffffffffffffffffffffffffffffffff16815260200190815260200160002060008282546120dc9190613c1e565b925050819055506001600360008473ffffffffffffffffffffffffffffffffffffffff1673ffffffffffffffffffffffffffffffffffffffff16815260200190815260200160002060008282546121339190613b3d565b92505081905550816002600083815260200190815260200160002060006101000a81548173ffffffffffffffffffffffffffffffffffffffff021916908373ffffffffffffffffffffffffffffffffffffffff160217905550808273ffffffffffffffffffffffffffffffffffffffff168473ffffffffffffffffffffffffffffffffffffffff167fddf252ad1be2c89b69c2b068fc378daa952ba7f163c4a11628f55a4df523b3ef60405160405180910390a4505050565b6122068282604051806020016040528060008152506126e9565b5050565b6000600a60009054906101000a900473ffffffffffffffffffffffffffffffffffffffff16905081600a60006101000a81548173ffffffffffffffffffffffffffffffffffffffff021916908373ffffffffffffffffffffffffffffffffffffffff1602179055508173ffffffffffffffffffffffffffffffffffffffff168173ffffffffffffffffffffffffffffffffffffffff167f8be0079c531659141344cd1fd0a4f28419497f9722a3daafe3b4186f6b6457e060405160405180910390a35050565b6122db848484611f90565b6122e784848484612744565b612326576040517f08c379a000000000000000000000000000000000000000000000000000000000815260040161231d906137ea565b60405180910390fd5b50505050565b6060600b805461233b90613d08565b80601f016020809104026020016040519081016040528092919081815260200182805461236790613d08565b80156123b45780601f10612389576101008083540402835291602001916123b4565b820191906000526020600020905b81548152906001019060200180831161239757829003601f168201915b5050505050905090565b60606000821415612406576040518060400160405280600181526020017f30000000000000000000000000000000000000000000000000000000000000008152509050612566565b600082905060005b6000821461243857808061242190613d6b565b915050600a826124319190613b93565b915061240e565b60008167ffffffffffffffff81111561247a577f4e487b7100000000000000000000000000000000000000000000000000000000600052604160045260246000fd5b6040519080825280601f01601f1916602001820160405280156124ac5781602001600182028036833780820191505090505b5090505b6000851461255f576001826124c59190613c1e565b9150600a856124d49190613db4565b60306124e09190613b3d565b60f81b81838151811061251c577f4e487b7100000000000000000000000000000000000000000000000000000000600052603260045260246000fd5b60200101907effffffffffffffffffffffffffffffffffffffffffffffffffffffffffffff1916908160001a905350600a856125589190613b93565b94506124b0565b8093505050505b919050565b60007f01ffc9a7000000000000000000000000000000000000000000000000000000007bffffffffffffffffffffffffffffffffffffffffffffffffffffffff1916827bffffffffffffffffffffffffffffffffffffffffffffffffffffffff1916149050919050565b6125e0838383611c9e565b600073ffffffffffffffffffffffffffffffffffffffff168373ffffffffffffffffffffffffffffffffffffffff1614156126235761261e816128db565b612662565b8173ffffffffffffffffffffffffffffffffffffffff168373ffffffffffffffffffffffffffffffffffffffff1614612661576126608382612924565b5b5b600073ffffffffffffffffffffffffffffffffffffffff168273ffffffffffffffffffffffffffffffffffffffff1614156126a5576126a081612a91565b6126e4565b8273ffffffffffffffffffffffffffffffffffffffff168273ffffffffffffffffffffffffffffffffffffffff16146126e3576126e28282612bd4565b5b5b505050565b6126f38383612c53565b6127006000848484612744565b61273f576040517f08c379a0000000000000000000000000000000000000000000000000000000008152600401612736906137ea565b60405180910390fd5b505050565b60006127658473ffffffffffffffffffffffffffffffffffffffff16611c8b565b156128ce578373ffffffffffffffffffffffffffffffffffffffff1663150b7a0261278e611d85565b8786866040518563ffffffff1660e01b81526004016127b0949392919061371f565b602060405180830381600087803b1580156127ca57600080fd5b505af19250505080156127fb57506040513d601f19601f820116820180604052508101906127f891906131f6565b60015b61287e573d806000811461282b576040519150601f19603f3d011682016040523d82523d6000602084013e612830565b606091505b50600081511415612876576040517f08c379a000000000000000000000000000000000000000000000000000000000815260040161286d906137ea565b60405180910390fd5b805181602001fd5b63150b7a0260e01b7bffffffffffffffffffffffffffffffffffffffffffffffffffffffff1916817bffffffffffffffffffffffffffffffffffffffffffffffffffffffff1916149150506128d3565b600190505b949350505050565b6008805490506009600083815260200190815260200160002081905550600881908060018154018082558091505060019003906000526020600020016000909190919091505550565b60006001612931846114a6565b61293b9190613c1e565b9050600060076000848152602001908152602001600020549050818114612a20576000600660008673ffffffffffffffffffffffffffffffffffffffff1673ffffffffffffffffffffffffffffffffffffffff168152602001908152602001600020600084815260200190815260200160002054905080600660008773ffffffffffffffffffffffffffffffffffffffff1673ffffffffffffffffffffffffffffffffffffffff168152602001908152602001600020600084815260200190815260200160002081905550816007600083815260200190815260200160002081905550505b6007600084815260200190815260200160002060009055600660008573ffffffffffffffffffffffffffffffffffffffff1673ffffffffffffffffffffffffffffffffffffffff16815260200190815260200160002060008381526020019081526020016000206000905550505050565b60006001600880549050612aa59190613c1e565b9050600060096000848152602001908152602001600020549050600060088381548110612afb577f4e487b7100000000000000000000000000000000000000000000000000000000600052603260045260246000fd5b906000526020600020015490508060088381548110612b43577f4e487b7100000000000000000000000000000000000000000000000000000000600052603260045260246000fd5b906000526020600020018190555081600960008381526020019081526020016000208190555060096000858152602001908152602001600020600090556008805480612bb8577f4e487b7100000000000000000000000000000000000000000000000000000000600052603160045260246000fd5b6001900381819060005260206000200160009055905550505050565b6000612bdf836114a6565b905081600660008573ffffffffffffffffffffffffffffffffffffffff1673ffffffffffffffffffffffffffffffffffffffff168152602001908152602001600020600083815260200190815260200160002081905550806007600084815260200190815260200160002081905550505050565b600073ffffffffffffffffffffffffffffffffffffffff168273ffffffffffffffffffffffffffffffffffffffff161415612cc3576040517f08c379a0000000000000000000000000000000000000000000000000000000008152600401612cba9061390a565b60405180910390fd5b612ccc81611d8d565b15612d0c576040517f08c379a0000000000000000000000000000000000000000000000000000000008152600401612d039061382a565b60405180910390fd5b612d18600083836125d5565b6001600360008473ffffffffffffffffffffffffffffffffffffffff1673ffffffffffffffffffffffffffffffffffffffff1681526020019081526020016000206000828254612d689190613b3d565b92505081905550816002600083815260200190815260200160002060006101000a81548173ffffffffffffffffffffffffffffffffffffffff021916908373ffffffffffffffffffffffffffffffffffffffff160217905550808273ffffffffffffffffffffffffffffffffffffffff16600073ffffffffffffffffffffffffffffffffffffffff167fddf252ad1be2c89b69c2b068fc378daa952ba7f163c4a11628f55a4df523b3ef60405160405180910390a45050565b828054612e2d90613d08565b90600052602060002090601f016020900481019282612e4f5760008555612e96565b82601f10612e6857805160ff1916838001178555612e96565b82800160010185558215612e96579182015b82811115612e95578251825591602001919060010190612e7a565b5b509050612ea39190612ea7565b5090565b5b80821115612ec0576000816000905550600101612ea8565b5090565b6000612ed7612ed284613a4a565b613a25565b905082815260208101848484011115612eef57600080fd5b612efa848285613cc6565b509392505050565b6000612f15612f1084613a7b565b613a25565b905082815260208101848484011115612f2d57600080fd5b612f38848285613cc6565b509392505050565b600081359050612f4f816143a8565b92915050565b600081359050612f64816143bf565b92915050565b600081359050612f79816143d6565b92915050565b600081519050612f8e816143d6565b92915050565b600082601f830112612fa557600080fd5b8135612fb5848260208601612ec4565b91505092915050565b600082601f830112612fcf57600080fd5b8135612fdf848260208601612f02565b91505092915050565b600081359050612ff7816143ed565b92915050565b60006020828403121561300f57600080fd5b600061301d84828501612f40565b91505092915050565b6000806040838503121561303957600080fd5b600061304785828601612f40565b925050602061305885828601612f40565b9150509250929050565b60008060006060848603121561307757600080fd5b600061308586828701612f40565b935050602061309686828701612f40565b92505060406130a786828701612fe8565b9150509250925092565b600080600080608085870312156130c757600080fd5b60006130d587828801612f40565b94505060206130e687828801612f40565b93505060406130f787828801612fe8565b925050606085013567ffffffffffffffff81111561311457600080fd5b61312087828801612f94565b91505092959194509250565b6000806040838503121561313f57600080fd5b600061314d85828601612f40565b925050602061315e85828601612f55565b9150509250929050565b6000806040838503121561317b57600080fd5b600061318985828601612f40565b925050602061319a85828601612fe8565b9150509250929050565b6000602082840312156131b657600080fd5b60006131c484828501612f55565b91505092915050565b6000602082840312156131df57600080fd5b60006131ed84828501612f6a565b91505092915050565b60006020828403121561320857600080fd5b600061321684828501612f7f565b91505092915050565b60006020828403121561323157600080fd5b600082013567ffffffffffffffff81111561324b57600080fd5b61325784828501612fbe565b91505092915050565b60006020828403121561327257600080fd5b600061328084828501612fe8565b91505092915050565b600061329583836136b5565b60208301905092915050565b6132aa81613c52565b82525050565b60006132bb82613ad1565b6132c58185613aff565b93506132d083613aac565b8060005b838110156133015781516132e88882613289565b97506132f383613af2565b9250506001810190506132d4565b5085935050505092915050565b61331781613c64565b82525050565b600061332882613adc565b6133328185613b10565b9350613342818560208601613cd5565b61334b81613ea1565b840191505092915050565b600061336182613ae7565b61336b8185613b21565b935061337b818560208601613cd5565b61338481613ea1565b840191505092915050565b600061339a82613ae7565b6133a48185613b32565b93506133b4818560208601613cd5565b80840191505092915050565b600081546133cd81613d08565b6133d78186613b32565b945060018216600081146133f2576001811461340357613436565b60ff19831686528186019350613436565b61340c85613abc565b60005b8381101561342e5781548189015260018201915060208101905061340f565b838801955050505b50505092915050565b600061344c602b83613b21565b915061345782613eb2565b604082019050919050565b600061346f603283613b21565b915061347a82613f01565b604082019050919050565b6000613492602683613b21565b915061349d82613f50565b604082019050919050565b60006134b5601c83613b21565b91506134c082613f9f565b602082019050919050565b60006134d8602483613b21565b91506134e382613fc8565b604082019050919050565b60006134fb601983613b21565b915061350682614017565b602082019050919050565b600061351e602c83613b21565b915061352982614040565b604082019050919050565b6000613541603883613b21565b915061354c8261408f565b604082019050919050565b6000613564602a83613b21565b915061356f826140de565b604082019050919050565b6000613587602983613b21565b91506135928261412d565b604082019050919050565b60006135aa602083613b21565b91506135b58261417c565b602082019050919050565b60006135cd602c83613b21565b91506135d8826141a5565b604082019050919050565b60006135f0602083613b21565b91506135fb826141f4565b602082019050919050565b6000613613602983613b21565b915061361e8261421d565b604082019050919050565b6000613636602f83613b21565b91506136418261426c565b604082019050919050565b6000613659602183613b21565b9150613664826142bb565b604082019050919050565b600061367c603183613b21565b91506136878261430a565b604082019050919050565b600061369f602c83613b21565b91506136aa82614359565b604082019050919050565b6136be81613cbc565b82525050565b6136cd81613cbc565b82525050565b60006136df828661338f565b91506136eb828561338f565b91506136f782846133c0565b9150819050949350505050565b600060208201905061371960008301846132a1565b92915050565b600060808201905061373460008301876132a1565b61374160208301866132a1565b61374e60408301856136c4565b8181036060830152613760818461331d565b905095945050505050565b6000602082019050818103600083015261378581846132b0565b905092915050565b60006020820190506137a2600083018461330e565b92915050565b600060208201905081810360008301526137c28184613356565b905092915050565b600060208201905081810360008301526137e38161343f565b9050919050565b6000602082019050818103600083015261380381613462565b9050919050565b6000602082019050818103600083015261382381613485565b9050919050565b60006020820190508181036000830152613843816134a8565b9050919050565b60006020820190508181036000830152613863816134cb565b9050919050565b60006020820190508181036000830152613883816134ee565b9050919050565b600060208201905081810360008301526138a381613511565b9050919050565b600060208201905081810360008301526138c381613534565b9050919050565b600060208201905081810360008301526138e381613557565b9050919050565b600060208201905081810360008301526139038161357a565b9050919050565b600060208201905081810360008301526139238161359d565b9050919050565b60006020820190508181036000830152613943816135c0565b9050919050565b60006020820190508181036000830152613963816135e3565b9050919050565b6000602082019050818103600083015261398381613606565b9050919050565b600060208201905081810360008301526139a381613629565b9050919050565b600060208201905081810360008301526139c38161364c565b9050919050565b600060208201905081810360008301526139e38161366f565b9050919050565b60006020820190508181036000830152613a0381613692565b9050919050565b6000602082019050613a1f60008301846136c4565b92915050565b6000613a2f613a40565b9050613a3b8282613d3a565b919050565b6000604051905090565b600067ffffffffffffffff821115613a6557613a64613e72565b5b613a6e82613ea1565b9050602081019050919050565b600067ffffffffffffffff821115613a9657613a95613e72565b5b613a9f82613ea1565b9050602081019050919050565b6000819050602082019050919050565b60008190508160005260206000209050919050565b600081519050919050565b600081519050919050565b600081519050919050565b6000602082019050919050565b600082825260208201905092915050565b600082825260208201905092915050565b600082825260208201905092915050565b600081905092915050565b6000613b4882613cbc565b9150613b5383613cbc565b9250827fffffffffffffffffffffffffffffffffffffffffffffffffffffffffffffffff03821115613b8857613b87613de5565b5b828201905092915050565b6000613b9e82613cbc565b9150613ba983613cbc565b925082613bb957613bb8613e14565b5b828204905092915050565b6000613bcf82613cbc565b9150613bda83613cbc565b9250817fffffffffffffffffffffffffffffffffffffffffffffffffffffffffffffffff0483118215151615613c1357613c12613de5565b5b828202905092915050565b6000613c2982613cbc565b9150613c3483613cbc565b925082821015613c4757613c46613de5565b5b828203905092915050565b6000613c5d82613c9c565b9050919050565b60008115159050919050565b60007fffffffff0000000000000000000000000000000000000000000000000000000082169050919050565b600073ffffffffffffffffffffffffffffffffffffffff82169050919050565b6000819050919050565b82818337600083830152505050565b60005b83811015613cf3578082015181840152602081019050613cd8565b83811115613d02576000848401525b50505050565b60006002820490506001821680613d2057607f821691505b60208210811415613d3457613d33613e43565b5b50919050565b613d4382613ea1565b810181811067ffffffffffffffff82111715613d6257613d61613e72565b5b80604052505050565b6000613d7682613cbc565b91507fffffffffffffffffffffffffffffffffffffffffffffffffffffffffffffffff821415613da957613da8613de5565b5b600182019050919050565b6000613dbf82613cbc565b9150613dca83613cbc565b925082613dda57613dd9613e14565b5b828206905092915050565b7f4e487b7100000000000000000000000000000000000000000000000000000000600052601160045260246000fd5b7f4e487b7100000000000000000000000000000000000000000000000000000000600052601260045260246000fd5b7f4e487b7100000000000000000000000000000000000000000000000000000000600052602260045260246000fd5b7f4e487b7100000000000000000000000000000000000000000000000000000000600052604160045260246000fd5b6000601f19601f8301169050919050565b7f455243373231456e756d657261626c653a206f776e657220696e646578206f7560008201527f74206f6620626f756e6473000000000000000000000000000000000000000000602082015250565b7f4552433732313a207472616e7366657220746f206e6f6e20455243373231526560008201527f63656976657220696d706c656d656e7465720000000000000000000000000000602082015250565b7f4f776e61626c653a206e6577206f776e657220697320746865207a65726f206160008201527f6464726573730000000000000000000000000000000000000000000000000000602082015250565b7f4552433732313a20746f6b656e20616c7265616479206d696e74656400000000600082015250565b7f4552433732313a207472616e7366657220746f20746865207a65726f2061646460008201527f7265737300000000000000000000000000000000000000000000000000000000602082015250565b7f4552433732313a20617070726f766520746f2063616c6c657200000000000000600082015250565b7f4552433732313a206f70657261746f7220717565727920666f72206e6f6e657860008201527f697374656e7420746f6b656e0000000000000000000000000000000000000000602082015250565b7f4552433732313a20617070726f76652063616c6c6572206973206e6f74206f7760008201527f6e6572206e6f7220617070726f76656420666f7220616c6c0000000000000000602082015250565b7f4552433732313a2062616c616e636520717565727920666f7220746865207a6560008201527f726f206164647265737300000000000000000000000000000000000000000000602082015250565b7f4552433732313a206f776e657220717565727920666f72206e6f6e657869737460008201527f656e7420746f6b656e0000000000000000000000000000000000000000000000602082015250565b7f4552433732313a206d696e7420746f20746865207a65726f2061646472657373600082015250565b7f4552433732313a20617070726f76656420717565727920666f72206e6f6e657860008201527f697374656e7420746f6b656e0000000000000000000000000000000000000000602082015250565b7f4f776e61626c653a2063616c6c6572206973206e6f7420746865206f776e6572600082015250565b7f4552433732313a207472616e73666572206f6620746f6b656e2074686174206960008201527f73206e6f74206f776e0000000000000000000000000000000000000000000000602082015250565b7f4552433732314d657461646174613a2055524920717565727920666f72206e6f60008201527f6e6578697374656e7420746f6b656e0000000000000000000000000000000000602082015250565b7f4552433732313a20617070726f76616c20746f2063757272656e74206f776e6560008201527f7200000000000000000000000000000000000000000000000000000000000000602082015250565b7f4552433732313a207472616e736665722063616c6c6572206973206e6f74206f60008201527f776e6572206e6f7220617070726f766564000000000000000000000000000000602082015250565b7f455243373231456e756d657261626c653a20676c6f62616c20696e646578206f60008201527f7574206f6620626f756e64730000000000000000000000000000000000000000602082015250565b6143b181613c52565b81146143bc57600080fd5b50565b6143c881613c64565b81146143d357600080fd5b50565b6143df81613c70565b81146143ea57600080fd5b50565b6143f681613cbc565b811461440157600080fd5b5056fea26469706673582212202726f5352e1ace62c74d28694d2acb925855be9d7e1218324bc9419368819d0264736f6c63430008010033",
  "immutableReferences": {},
  "source": "// SPDX-License-Identifier: GPL-3.0\n\n\npragma solidity ^0.8.0;\n\nimport \"@openzeppelin/contracts/token/ERC721/extensions/ERC721Enumerable.sol\";\nimport \"@openzeppelin/contracts/access/Ownable.sol\";\n\ncontract BlockgemsNFTcollection is ERC721Enumerable, Ownable {\n  using Strings for uint256;\n\n  string public baseURI;\n  string public baseExtension = \".json\";\n  uint256 public cost = 0.01 ether;\n  uint256 public maxSupply = 5;\n  uint256 public maxMintAmount = 2;\n  bool public paused = false;\n  mapping(address => bool) public whitelisted;\n\n  constructor(\n    string memory _name,\n    string memory _symbol,\n    string memory _initBaseURI\n  ) ERC721(_name, _symbol) {\n    setBaseURI(_initBaseURI);\n    mint(msg.sender, 1); \n  }\n\n  // internal\n  function _baseURI() internal view virtual override returns (string memory) {\n    return baseURI;\n  }\n\n  // public\n  function mint(address _to, uint256 _mintAmount) public payable {\n    uint256 supply = totalSupply();\n    require(!paused);\n    require(_mintAmount > 0);\n    require(_mintAmount <= maxMintAmount);\n    require(supply + _mintAmount <= maxSupply);\n\n    if (msg.sender != owner()) {\n        if(whitelisted[msg.sender] != true) {\n          require(msg.value >= cost * _mintAmount);\n        }\n    }\n\n    for (uint256 i = 1; i <= _mintAmount; i++) {\n      _safeMint(_to, supply + i);\n    }\n  }\n\n  function walletOfOwner(address _owner)\n    public\n    view\n    returns (uint256[] memory)\n  {\n    uint256 ownerTokenCount = balanceOf(_owner);\n    uint256[] memory tokenIds = new uint256[](ownerTokenCount);\n    for (uint256 i; i < ownerTokenCount; i++) {\n      tokenIds[i] = tokenOfOwnerByIndex(_owner, i);\n    }\n    return tokenIds;\n  }\n\n  function tokenURI(uint256 tokenId)\n    public\n    view\n    virtual\n    override\n    returns (string memory)\n  {\n    require(\n      _exists(tokenId),\n      \"ERC721Metadata: URI query for nonexistent token\"\n    );\n\n    string memory currentBaseURI = _baseURI();\n    return bytes(currentBaseURI).length > 0\n        ? string(abi.encodePacked(currentBaseURI, tokenId.toString(), baseExtension))\n        : \"\";\n  }\n\n  //only owner\n  function setCost(uint256 _newCost) public onlyOwner {\n    cost = _newCost;\n  }\n\n  function setmaxMintAmount(uint256 _newmaxMintAmount) public onlyOwner {\n    maxMintAmount = _newmaxMintAmount;\n  }\n\n  function setBaseURI(string memory _newBaseURI) public onlyOwner {\n    baseURI = _newBaseURI;\n  }\n\n  function setBaseExtension(string memory _newBaseExtension) public onlyOwner {\n    baseExtension = _newBaseExtension;\n  }\n\n  function pause(bool _state) public onlyOwner {\n    paused = _state;\n  }\n \n function whitelistUser(address _user) public onlyOwner {\n    whitelisted[_user] = true;\n  }\n \n  function removeWhitelistUser(address _user) public onlyOwner {\n    whitelisted[_user] = false;\n  }\n\n  function withdraw() public payable onlyOwner {\n    require(payable(msg.sender).send(address(this).balance));\n  }\n}",
  "sourcePath": "/Users/marcodefalco/Desktop/BlockGems/nft_minter_rework/Smart_contract_part/contracts/BlockgemsNFTCollection.sol",
  "compiler": {
    "name": "solc",
    "version": "0.8.1+commit.df193b15.Emscripten.clang"
  },
  "schemaVersion": "3.4.3",
  "updatedAt": "2021-11-01T15:01:37.441Z",
  "networkType": "ethereum",
  "devdoc": {
    "kind": "dev",
    "methods": {
      "approve(address,uint256)": {
        "details": "See {IERC721-approve}."
      },
      "balanceOf(address)": {
        "details": "See {IERC721-balanceOf}."
      },
      "getApproved(uint256)": {
        "details": "See {IERC721-getApproved}."
      },
      "isApprovedForAll(address,address)": {
        "details": "See {IERC721-isApprovedForAll}."
      },
      "name()": {
        "details": "See {IERC721Metadata-name}."
      },
      "owner()": {
        "details": "Returns the address of the current owner."
      },
      "ownerOf(uint256)": {
        "details": "See {IERC721-ownerOf}."
      },
      "renounceOwnership()": {
        "details": "Leaves the contract without owner. It will not be possible to call `onlyOwner` functions anymore. Can only be called by the current owner. NOTE: Renouncing ownership will leave the contract without an owner, thereby removing any functionality that is only available to the owner."
      },
      "safeTransferFrom(address,address,uint256)": {
        "details": "See {IERC721-safeTransferFrom}."
      },
      "safeTransferFrom(address,address,uint256,bytes)": {
        "details": "See {IERC721-safeTransferFrom}."
      },
      "setApprovalForAll(address,bool)": {
        "details": "See {IERC721-setApprovalForAll}."
      },
      "supportsInterface(bytes4)": {
        "details": "See {IERC165-supportsInterface}."
      },
      "symbol()": {
        "details": "See {IERC721Metadata-symbol}."
      },
      "tokenByIndex(uint256)": {
        "details": "See {IERC721Enumerable-tokenByIndex}."
      },
      "tokenOfOwnerByIndex(address,uint256)": {
        "details": "See {IERC721Enumerable-tokenOfOwnerByIndex}."
      },
      "tokenURI(uint256)": {
        "details": "See {IERC721Metadata-tokenURI}."
      },
      "totalSupply()": {
        "details": "See {IERC721Enumerable-totalSupply}."
      },
      "transferFrom(address,address,uint256)": {
        "details": "See {IERC721-transferFrom}."
      },
      "transferOwnership(address)": {
        "details": "Transfers ownership of the contract to a new account (`newOwner`). Can only be called by the current owner."
      }
    },
    "version": 1
  },
  "userdoc": {
    "kind": "user",
    "methods": {},
    "version": 1
  }
}